{
  "_format": "hh-sol-artifact-1",
  "contractName": "SellaToken",
  "sourceName": "contracts/SellaToken.sol",
  "abi": [
    {
      "inputs": [
        {
          "internalType": "uint256",
          "name": "initialSupply",
          "type": "uint256"
        }
      ],
      "stateMutability": "nonpayable",
      "type": "constructor"
    },
    {
      "anonymous": false,
      "inputs": [
        {
          "indexed": true,
          "internalType": "address",
          "name": "owner",
          "type": "address"
        },
        {
          "indexed": true,
          "internalType": "address",
          "name": "spender",
          "type": "address"
        },
        {
          "indexed": false,
          "internalType": "uint256",
          "name": "value",
          "type": "uint256"
        }
      ],
      "name": "Approval",
      "type": "event"
    },
    {
      "anonymous": false,
      "inputs": [
        {
          "indexed": true,
          "internalType": "address",
          "name": "previousOwner",
          "type": "address"
        },
        {
          "indexed": true,
          "internalType": "address",
          "name": "newOwner",
          "type": "address"
        }
      ],
      "name": "OwnershipTransferred",
      "type": "event"
    },
    {
      "anonymous": false,
      "inputs": [
        {
          "indexed": false,
          "internalType": "address",
          "name": "account",
          "type": "address"
        }
      ],
      "name": "Paused",
      "type": "event"
    },
    {
      "anonymous": false,
      "inputs": [
        {
          "indexed": true,
          "internalType": "address",
          "name": "from",
          "type": "address"
        },
        {
          "indexed": true,
          "internalType": "address",
          "name": "to",
          "type": "address"
        },
        {
          "indexed": false,
          "internalType": "uint256",
          "name": "value",
          "type": "uint256"
        }
      ],
      "name": "Transfer",
      "type": "event"
    },
    {
      "anonymous": false,
      "inputs": [
        {
          "indexed": false,
          "internalType": "address",
          "name": "account",
          "type": "address"
        }
      ],
      "name": "Unpaused",
      "type": "event"
    },
    {
      "inputs": [
        {
          "internalType": "address",
          "name": "owner",
          "type": "address"
        },
        {
          "internalType": "address",
          "name": "spender",
          "type": "address"
        }
      ],
      "name": "allowance",
      "outputs": [
        {
          "internalType": "uint256",
          "name": "",
          "type": "uint256"
        }
      ],
      "stateMutability": "view",
      "type": "function"
    },
    {
      "inputs": [
        {
          "internalType": "address",
          "name": "spender",
          "type": "address"
        },
        {
          "internalType": "uint256",
          "name": "amount",
          "type": "uint256"
        }
      ],
      "name": "approve",
      "outputs": [
        {
          "internalType": "bool",
          "name": "",
          "type": "bool"
        }
      ],
      "stateMutability": "nonpayable",
      "type": "function"
    },
    {
      "inputs": [
        {
          "internalType": "address",
          "name": "account",
          "type": "address"
        }
      ],
      "name": "balanceOf",
      "outputs": [
        {
          "internalType": "uint256",
          "name": "",
          "type": "uint256"
        }
      ],
      "stateMutability": "view",
      "type": "function"
    },
    {
      "inputs": [
        {
          "internalType": "uint256",
          "name": "euro",
          "type": "uint256"
        }
      ],
      "name": "buySellaToken",
      "outputs": [],
      "stateMutability": "nonpayable",
      "type": "function"
    },
    {
      "inputs": [],
      "name": "decimals",
      "outputs": [
        {
          "internalType": "uint8",
          "name": "",
          "type": "uint8"
        }
      ],
      "stateMutability": "view",
      "type": "function"
    },
    {
      "inputs": [
        {
          "internalType": "address",
          "name": "spender",
          "type": "address"
        },
        {
          "internalType": "uint256",
          "name": "subtractedValue",
          "type": "uint256"
        }
      ],
      "name": "decreaseAllowance",
      "outputs": [
        {
          "internalType": "bool",
          "name": "",
          "type": "bool"
        }
      ],
      "stateMutability": "nonpayable",
      "type": "function"
    },
    {
      "inputs": [],
      "name": "examplePaggedEuro",
      "outputs": [
        {
          "internalType": "uint256",
          "name": "",
          "type": "uint256"
        }
      ],
      "stateMutability": "view",
      "type": "function"
    },
    {
      "inputs": [
        {
          "internalType": "address",
          "name": "spender",
          "type": "address"
        },
        {
          "internalType": "uint256",
          "name": "addedValue",
          "type": "uint256"
        }
      ],
      "name": "increaseAllowance",
      "outputs": [
        {
          "internalType": "bool",
          "name": "",
          "type": "bool"
        }
      ],
      "stateMutability": "nonpayable",
      "type": "function"
    },
    {
      "inputs": [],
      "name": "name",
      "outputs": [
        {
          "internalType": "string",
          "name": "",
          "type": "string"
        }
      ],
      "stateMutability": "view",
      "type": "function"
    },
    {
      "inputs": [],
      "name": "owner",
      "outputs": [
        {
          "internalType": "address",
          "name": "",
          "type": "address"
        }
      ],
      "stateMutability": "view",
      "type": "function"
    },
    {
      "inputs": [],
      "name": "paused",
      "outputs": [
        {
          "internalType": "bool",
          "name": "",
          "type": "bool"
        }
      ],
      "stateMutability": "view",
      "type": "function"
    },
    {
      "inputs": [],
      "name": "renounceOwnership",
      "outputs": [],
      "stateMutability": "nonpayable",
      "type": "function"
    },
    {
      "inputs": [
        {
          "internalType": "uint256",
          "name": "value",
          "type": "uint256"
        }
      ],
      "name": "sellSellaToken",
      "outputs": [],
      "stateMutability": "nonpayable",
      "type": "function"
    },
    {
      "inputs": [],
      "name": "symbol",
      "outputs": [
        {
          "internalType": "string",
          "name": "",
          "type": "string"
        }
      ],
      "stateMutability": "view",
      "type": "function"
    },
    {
      "inputs": [],
      "name": "totalSupply",
      "outputs": [
        {
          "internalType": "uint256",
          "name": "",
          "type": "uint256"
        }
      ],
      "stateMutability": "view",
      "type": "function"
    },
    {
      "inputs": [
        {
          "internalType": "address",
          "name": "to",
          "type": "address"
        },
        {
          "internalType": "uint256",
          "name": "amount",
          "type": "uint256"
        }
      ],
      "name": "transfer",
      "outputs": [
        {
          "internalType": "bool",
          "name": "",
          "type": "bool"
        }
      ],
      "stateMutability": "nonpayable",
      "type": "function"
    },
    {
      "inputs": [
        {
          "internalType": "address",
          "name": "from",
          "type": "address"
        },
        {
          "internalType": "address",
          "name": "to",
          "type": "address"
        },
        {
          "internalType": "uint256",
          "name": "amount",
          "type": "uint256"
        }
      ],
      "name": "transferFrom",
      "outputs": [
        {
          "internalType": "bool",
          "name": "",
          "type": "bool"
        }
      ],
      "stateMutability": "nonpayable",
      "type": "function"
    },
    {
      "inputs": [
        {
          "internalType": "address",
          "name": "newOwner",
          "type": "address"
        }
      ],
      "name": "transferOwnership",
      "outputs": [],
      "stateMutability": "nonpayable",
      "type": "function"
    }
  ],
  "bytecode": "0x60806040523480156200001157600080fd5b506040516200252d3803806200252d8339818101604052810190620000379190620003f5565b6040518060400160405280600a81526020017f53656c6c61546f6b656e000000000000000000000000000000000000000000008152506040518060400160405280600581526020017f53454c4c410000000000000000000000000000000000000000000000000000008152508160039081620000b4919062000697565b508060049081620000c6919062000697565b505050620000e9620000dd6200016560201b60201c565b6200016d60201b60201c565b6000600560146101000a81548160ff02191690831515021790555033600660006101000a81548173ffffffffffffffffffffffffffffffffffffffff021916908373ffffffffffffffffffffffffffffffffffffffff1602179055506200015733826200023360201b60201c565b8060078190555050620008bb565b600033905090565b6000600560009054906101000a900473ffffffffffffffffffffffffffffffffffffffff16905081600560006101000a81548173ffffffffffffffffffffffffffffffffffffffff021916908373ffffffffffffffffffffffffffffffffffffffff1602179055508173ffffffffffffffffffffffffffffffffffffffff168173ffffffffffffffffffffffffffffffffffffffff167f8be0079c531659141344cd1fd0a4f28419497f9722a3daafe3b4186f6b6457e060405160405180910390a35050565b600073ffffffffffffffffffffffffffffffffffffffff168273ffffffffffffffffffffffffffffffffffffffff1603620002a5576040517f08c379a00000000000000000000000000000000000000000000000000000000081526004016200029c90620007df565b60405180910390fd5b620002b960008383620003ab60201b60201c565b8060026000828254620002cd919062000830565b92505081905550806000808473ffffffffffffffffffffffffffffffffffffffff1673ffffffffffffffffffffffffffffffffffffffff168152602001908152602001600020600082825462000324919062000830565b925050819055508173ffffffffffffffffffffffffffffffffffffffff16600073ffffffffffffffffffffffffffffffffffffffff167fddf252ad1be2c89b69c2b068fc378daa952ba7f163c4a11628f55a4df523b3ef836040516200038b91906200089e565b60405180910390a3620003a760008383620003b060201b60201c565b5050565b505050565b505050565b600080fd5b6000819050919050565b620003cf81620003ba565b8114620003db57600080fd5b50565b600081519050620003ef81620003c4565b92915050565b6000602082840312156200040e576200040d620003b5565b5b60006200041e84828501620003de565b91505092915050565b600081519050919050565b7f4e487b7100000000000000000000000000000000000000000000000000000000600052604160045260246000fd5b7f4e487b7100000000000000000000000000000000000000000000000000000000600052602260045260246000fd5b60006002820490506001821680620004a957607f821691505b602082108103620004bf57620004be62000461565b5b50919050565b60008190508160005260206000209050919050565b60006020601f8301049050919050565b600082821b905092915050565b600060088302620005297fffffffffffffffffffffffffffffffffffffffffffffffffffffffffffffffff82620004ea565b620005358683620004ea565b95508019841693508086168417925050509392505050565b6000819050919050565b600062000578620005726200056c84620003ba565b6200054d565b620003ba565b9050919050565b6000819050919050565b620005948362000557565b620005ac620005a3826200057f565b848454620004f7565b825550505050565b600090565b620005c3620005b4565b620005d081848462000589565b505050565b5b81811015620005f857620005ec600082620005b9565b600181019050620005d6565b5050565b601f82111562000647576200061181620004c5565b6200061c84620004da565b810160208510156200062c578190505b620006446200063b85620004da565b830182620005d5565b50505b505050565b600082821c905092915050565b60006200066c600019846008026200064c565b1980831691505092915050565b600062000687838362000659565b9150826002028217905092915050565b620006a28262000427565b67ffffffffffffffff811115620006be57620006bd62000432565b5b620006ca825462000490565b620006d7828285620005fc565b600060209050601f8311600181146200070f5760008415620006fa578287015190505b62000706858262000679565b86555062000776565b601f1984166200071f86620004c5565b60005b82811015620007495784890151825560018201915060208501945060208101905062000722565b8683101562000769578489015162000765601f89168262000659565b8355505b6001600288020188555050505b505050505050565b600082825260208201905092915050565b7f45524332303a206d696e7420746f20746865207a65726f206164647265737300600082015250565b6000620007c7601f836200077e565b9150620007d4826200078f565b602082019050919050565b60006020820190508181036000830152620007fa81620007b8565b9050919050565b7f4e487b7100000000000000000000000000000000000000000000000000000000600052601160045260246000fd5b60006200083d82620003ba565b91506200084a83620003ba565b9250827fffffffffffffffffffffffffffffffffffffffffffffffffffffffffffffffff0382111562000882576200088162000801565b5b828201905092915050565b6200089881620003ba565b82525050565b6000602082019050620008b560008301846200088d565b92915050565b611c6280620008cb6000396000f3fe608060405234801561001057600080fd5b50600436106101165760003560e01c80638da5cb5b116100a2578063c8539ecf11610071578063c8539ecf146102f9578063d222e82214610315578063dd62ed3e14610333578063f2fde38b14610363578063fa6f4a1d1461037f57610116565b80638da5cb5b1461025d57806395d89b411461027b578063a457c2d714610299578063a9059cbb146102c957610116565b8063313ce567116100e9578063313ce567146101b757806339509351146101d55780635c975abb1461020557806370a0823114610223578063715018a61461025357610116565b806306fdde031461011b578063095ea7b31461013957806318160ddd1461016957806323b872dd14610187575b600080fd5b61012361039b565b6040516101309190611204565b60405180910390f35b610153600480360381019061014e91906112bf565b61042d565b604051610160919061131a565b60405180910390f35b610171610450565b60405161017e9190611344565b60405180910390f35b6101a1600480360381019061019c919061135f565b61045a565b6040516101ae919061131a565b60405180910390f35b6101bf610489565b6040516101cc91906113ce565b60405180910390f35b6101ef60048036038101906101ea91906112bf565b610492565b6040516101fc919061131a565b60405180910390f35b61020d6104c9565b60405161021a919061131a565b60405180910390f35b61023d600480360381019061023891906113e9565b6104e0565b60405161024a9190611344565b60405180910390f35b61025b610528565b005b61026561053c565b6040516102729190611425565b60405180910390f35b610283610566565b6040516102909190611204565b60405180910390f35b6102b360048036038101906102ae91906112bf565b6105f8565b6040516102c0919061131a565b60405180910390f35b6102e360048036038101906102de91906112bf565b61066f565b6040516102f0919061131a565b60405180910390f35b610313600480360381019061030e9190611440565b610692565b005b61031d6106b1565b60405161032a9190611344565b60405180910390f35b61034d6004803603810190610348919061146d565b6106b7565b60405161035a9190611344565b60405180910390f35b61037d600480360381019061037891906113e9565b61073e565b005b61039960048036038101906103949190611440565b6107c1565b005b6060600380546103aa906114dc565b80601f01602080910402602001604051908101604052809291908181526020018280546103d6906114dc565b80156104235780601f106103f857610100808354040283529160200191610423565b820191906000526020600020905b81548152906001019060200180831161040657829003601f168201915b5050505050905090565b6000806104386107e0565b90506104458185856107e8565b600191505092915050565b6000600254905090565b6000806104656107e0565b90506104728582856109b1565b61047d858585610a3d565b60019150509392505050565b60006004905090565b60008061049d6107e0565b90506104be8185856104af85896106b7565b6104b9919061153c565b6107e8565b600191505092915050565b6000600560149054906101000a900460ff16905090565b60008060008373ffffffffffffffffffffffffffffffffffffffff1673ffffffffffffffffffffffffffffffffffffffff168152602001908152602001600020549050919050565b610530610cbc565b61053a6000610d3a565b565b6000600560009054906101000a900473ffffffffffffffffffffffffffffffffffffffff16905090565b606060048054610575906114dc565b80601f01602080910402602001604051908101604052809291908181526020018280546105a1906114dc565b80156105ee5780601f106105c3576101008083540402835291602001916105ee565b820191906000526020600020905b8154815290600101906020018083116105d157829003601f168201915b5050505050905090565b6000806106036107e0565b9050600061061182866106b7565b905083811015610656576040517f08c379a000000000000000000000000000000000000000000000000000000000815260040161064d90611604565b60405180910390fd5b61066382868684036107e8565b60019250505092915050565b60008061067a6107e0565b9050610687818585610a3d565b600191505092915050565b61069c3382610e00565b6106a860075482610fd6565b60078190555050565b60075481565b6000600160008473ffffffffffffffffffffffffffffffffffffffff1673ffffffffffffffffffffffffffffffffffffffff16815260200190815260200160002060008373ffffffffffffffffffffffffffffffffffffffff1673ffffffffffffffffffffffffffffffffffffffff16815260200190815260200160002054905092915050565b610746610cbc565b600073ffffffffffffffffffffffffffffffffffffffff168173ffffffffffffffffffffffffffffffffffffffff16036107b5576040517f08c379a00000000000000000000000000000000000000000000000000000000081526004016107ac90611696565b60405180910390fd5b6107be81610d3a565b50565b6107cb3382610fec565b6107d76007548261114b565b60078190555050565b600033905090565b600073ffffffffffffffffffffffffffffffffffffffff168373ffffffffffffffffffffffffffffffffffffffff1603610857576040517f08c379a000000000000000000000000000000000000000000000000000000000815260040161084e90611728565b60405180910390fd5b600073ffffffffffffffffffffffffffffffffffffffff168273ffffffffffffffffffffffffffffffffffffffff16036108c6576040517f08c379a00000000000000000000000000000000000000000000000000000000081526004016108bd906117ba565b60405180910390fd5b80600160008573ffffffffffffffffffffffffffffffffffffffff1673ffffffffffffffffffffffffffffffffffffffff16815260200190815260200160002060008473ffffffffffffffffffffffffffffffffffffffff1673ffffffffffffffffffffffffffffffffffffffff168152602001908152602001600020819055508173ffffffffffffffffffffffffffffffffffffffff168373ffffffffffffffffffffffffffffffffffffffff167f8c5be1e5ebec7d5bd14f71427d1e84f3dd0314c0f7b2291e5b200ac8c7c3b925836040516109a49190611344565b60405180910390a3505050565b60006109bd84846106b7565b90507fffffffffffffffffffffffffffffffffffffffffffffffffffffffffffffffff8114610a375781811015610a29576040517f08c379a0000000000000000000000000000000000000000000000000000000008152600401610a2090611826565b60405180910390fd5b610a3684848484036107e8565b5b50505050565b600073ffffffffffffffffffffffffffffffffffffffff168373ffffffffffffffffffffffffffffffffffffffff1603610aac576040517f08c379a0000000000000000000000000000000000000000000000000000000008152600401610aa3906118b8565b60405180910390fd5b600073ffffffffffffffffffffffffffffffffffffffff168273ffffffffffffffffffffffffffffffffffffffff1603610b1b576040517f08c379a0000000000000000000000000000000000000000000000000000000008152600401610b129061194a565b60405180910390fd5b610b26838383611161565b60008060008573ffffffffffffffffffffffffffffffffffffffff1673ffffffffffffffffffffffffffffffffffffffff16815260200190815260200160002054905081811015610bac576040517f08c379a0000000000000000000000000000000000000000000000000000000008152600401610ba3906119dc565b60405180910390fd5b8181036000808673ffffffffffffffffffffffffffffffffffffffff1673ffffffffffffffffffffffffffffffffffffffff16815260200190815260200160002081905550816000808573ffffffffffffffffffffffffffffffffffffffff1673ffffffffffffffffffffffffffffffffffffffff1681526020019081526020016000206000828254610c3f919061153c565b925050819055508273ffffffffffffffffffffffffffffffffffffffff168473ffffffffffffffffffffffffffffffffffffffff167fddf252ad1be2c89b69c2b068fc378daa952ba7f163c4a11628f55a4df523b3ef84604051610ca39190611344565b60405180910390a3610cb6848484611166565b50505050565b610cc46107e0565b73ffffffffffffffffffffffffffffffffffffffff16610ce261053c565b73ffffffffffffffffffffffffffffffffffffffff1614610d38576040517f08c379a0000000000000000000000000000000000000000000000000000000008152600401610d2f90611a48565b60405180910390fd5b565b6000600560009054906101000a900473ffffffffffffffffffffffffffffffffffffffff16905081600560006101000a81548173ffffffffffffffffffffffffffffffffffffffff021916908373ffffffffffffffffffffffffffffffffffffffff1602179055508173ffffffffffffffffffffffffffffffffffffffff168173ffffffffffffffffffffffffffffffffffffffff167f8be0079c531659141344cd1fd0a4f28419497f9722a3daafe3b4186f6b6457e060405160405180910390a35050565b600073ffffffffffffffffffffffffffffffffffffffff168273ffffffffffffffffffffffffffffffffffffffff1603610e6f576040517f08c379a0000000000000000000000000000000000000000000000000000000008152600401610e6690611ada565b60405180910390fd5b610e7b82600083611161565b60008060008473ffffffffffffffffffffffffffffffffffffffff1673ffffffffffffffffffffffffffffffffffffffff16815260200190815260200160002054905081811015610f01576040517f08c379a0000000000000000000000000000000000000000000000000000000008152600401610ef890611b6c565b60405180910390fd5b8181036000808573ffffffffffffffffffffffffffffffffffffffff1673ffffffffffffffffffffffffffffffffffffffff168152602001908152602001600020819055508160026000828254610f589190611b8c565b92505081905550600073ffffffffffffffffffffffffffffffffffffffff168373ffffffffffffffffffffffffffffffffffffffff167fddf252ad1be2c89b69c2b068fc378daa952ba7f163c4a11628f55a4df523b3ef84604051610fbd9190611344565b60405180910390a3610fd183600084611166565b505050565b60008183610fe49190611b8c565b905092915050565b600073ffffffffffffffffffffffffffffffffffffffff168273ffffffffffffffffffffffffffffffffffffffff160361105b576040517f08c379a000000000000000000000000000000000000000000000000000000000815260040161105290611c0c565b60405180910390fd5b61106760008383611161565b8060026000828254611079919061153c565b92505081905550806000808473ffffffffffffffffffffffffffffffffffffffff1673ffffffffffffffffffffffffffffffffffffffff16815260200190815260200160002060008282546110ce919061153c565b925050819055508173ffffffffffffffffffffffffffffffffffffffff16600073ffffffffffffffffffffffffffffffffffffffff167fddf252ad1be2c89b69c2b068fc378daa952ba7f163c4a11628f55a4df523b3ef836040516111339190611344565b60405180910390a361114760008383611166565b5050565b60008183611159919061153c565b905092915050565b505050565b505050565b600081519050919050565b600082825260208201905092915050565b60005b838110156111a557808201518184015260208101905061118a565b838111156111b4576000848401525b50505050565b6000601f19601f8301169050919050565b60006111d68261116b565b6111e08185611176565b93506111f0818560208601611187565b6111f9816111ba565b840191505092915050565b6000602082019050818103600083015261121e81846111cb565b905092915050565b600080fd5b600073ffffffffffffffffffffffffffffffffffffffff82169050919050565b60006112568261122b565b9050919050565b6112668161124b565b811461127157600080fd5b50565b6000813590506112838161125d565b92915050565b6000819050919050565b61129c81611289565b81146112a757600080fd5b50565b6000813590506112b981611293565b92915050565b600080604083850312156112d6576112d5611226565b5b60006112e485828601611274565b92505060206112f5858286016112aa565b9150509250929050565b60008115159050919050565b611314816112ff565b82525050565b600060208201905061132f600083018461130b565b92915050565b61133e81611289565b82525050565b60006020820190506113596000830184611335565b92915050565b60008060006060848603121561137857611377611226565b5b600061138686828701611274565b935050602061139786828701611274565b92505060406113a8868287016112aa565b9150509250925092565b600060ff82169050919050565b6113c8816113b2565b82525050565b60006020820190506113e360008301846113bf565b92915050565b6000602082840312156113ff576113fe611226565b5b600061140d84828501611274565b91505092915050565b61141f8161124b565b82525050565b600060208201905061143a6000830184611416565b92915050565b60006020828403121561145657611455611226565b5b6000611464848285016112aa565b91505092915050565b6000806040838503121561148457611483611226565b5b600061149285828601611274565b92505060206114a385828601611274565b9150509250929050565b7f4e487b7100000000000000000000000000000000000000000000000000000000600052602260045260246000fd5b600060028204905060018216806114f457607f821691505b602082108103611507576115066114ad565b5b50919050565b7f4e487b7100000000000000000000000000000000000000000000000000000000600052601160045260246000fd5b600061154782611289565b915061155283611289565b9250827fffffffffffffffffffffffffffffffffffffffffffffffffffffffffffffffff038211156115875761158661150d565b5b828201905092915050565b7f45524332303a2064656372656173656420616c6c6f77616e63652062656c6f7760008201527f207a65726f000000000000000000000000000000000000000000000000000000602082015250565b60006115ee602583611176565b91506115f982611592565b604082019050919050565b6000602082019050818103600083015261161d816115e1565b9050919050565b7f4f776e61626c653a206e6577206f776e657220697320746865207a65726f206160008201527f6464726573730000000000000000000000000000000000000000000000000000602082015250565b6000611680602683611176565b915061168b82611624565b604082019050919050565b600060208201905081810360008301526116af81611673565b9050919050565b7f45524332303a20617070726f76652066726f6d20746865207a65726f2061646460008201527f7265737300000000000000000000000000000000000000000000000000000000602082015250565b6000611712602483611176565b915061171d826116b6565b604082019050919050565b6000602082019050818103600083015261174181611705565b9050919050565b7f45524332303a20617070726f766520746f20746865207a65726f20616464726560008201527f7373000000000000000000000000000000000000000000000000000000000000602082015250565b60006117a4602283611176565b91506117af82611748565b604082019050919050565b600060208201905081810360008301526117d381611797565b9050919050565b7f45524332303a20696e73756666696369656e7420616c6c6f77616e6365000000600082015250565b6000611810601d83611176565b915061181b826117da565b602082019050919050565b6000602082019050818103600083015261183f81611803565b9050919050565b7f45524332303a207472616e736665722066726f6d20746865207a65726f20616460008201527f6472657373000000000000000000000000000000000000000000000000000000602082015250565b60006118a2602583611176565b91506118ad82611846565b604082019050919050565b600060208201905081810360008301526118d181611895565b9050919050565b7f45524332303a207472616e7366657220746f20746865207a65726f206164647260008201527f6573730000000000000000000000000000000000000000000000000000000000602082015250565b6000611934602383611176565b915061193f826118d8565b604082019050919050565b6000602082019050818103600083015261196381611927565b9050919050565b7f45524332303a207472616e7366657220616d6f756e742065786365656473206260008201527f616c616e63650000000000000000000000000000000000000000000000000000602082015250565b60006119c6602683611176565b91506119d18261196a565b604082019050919050565b600060208201905081810360008301526119f5816119b9565b9050919050565b7f4f776e61626c653a2063616c6c6572206973206e6f7420746865206f776e6572600082015250565b6000611a32602083611176565b9150611a3d826119fc565b602082019050919050565b60006020820190508181036000830152611a6181611a25565b9050919050565b7f45524332303a206275726e2066726f6d20746865207a65726f2061646472657360008201527f7300000000000000000000000000000000000000000000000000000000000000602082015250565b6000611ac4602183611176565b9150611acf82611a68565b604082019050919050565b60006020820190508181036000830152611af381611ab7565b9050919050565b7f45524332303a206275726e20616d6f756e7420657863656564732062616c616e60008201527f6365000000000000000000000000000000000000000000000000000000000000602082015250565b6000611b56602283611176565b9150611b6182611afa565b604082019050919050565b60006020820190508181036000830152611b8581611b49565b9050919050565b6000611b9782611289565b9150611ba283611289565b925082821015611bb557611bb461150d565b5b828203905092915050565b7f45524332303a206d696e7420746f20746865207a65726f206164647265737300600082015250565b6000611bf6601f83611176565b9150611c0182611bc0565b602082019050919050565b60006020820190508181036000830152611c2581611be9565b905091905056fea2646970667358221220bcbc2a84a27426d521c3f61997f119958d2f08629ddc2168085879ad0408a93f64736f6c634300080f0033",
  "linkReferences": {},
  "deployedLinkReferences": {}
}