{
  "address": "0x80828e7131904D6Ce42dfa989Ff8437EE4b86b37",
  "abi": [
    {
      "inputs": [
        {
          "internalType": "uint256",
          "name": "ownerFee_",
          "type": "uint256"
        }
      ],
      "stateMutability": "nonpayable",
      "type": "constructor"
    },
    {
      "anonymous": false,
      "inputs": [
        {
          "indexed": true,
          "internalType": "address",
          "name": "previousOwner",
          "type": "address"
        },
        {
          "indexed": true,
          "internalType": "address",
          "name": "newOwner",
          "type": "address"
        }
      ],
      "name": "OwnershipTransferred",
      "type": "event"
    },
    {
      "inputs": [],
      "name": "SELLA_CONTRACT",
      "outputs": [
        {
          "internalType": "address",
          "name": "",
          "type": "address"
        }
      ],
      "stateMutability": "view",
      "type": "function"
    },
    {
      "inputs": [
        {
          "internalType": "address",
          "name": "agent",
          "type": "address"
        },
        {
          "internalType": "uint256",
          "name": "fee",
          "type": "uint256"
        }
      ],
      "name": "addAgentFeeToCompany",
      "outputs": [],
      "stateMutability": "nonpayable",
      "type": "function"
    },
    {
      "inputs": [
        {
          "internalType": "uint256",
          "name": "fee",
          "type": "uint256"
        }
      ],
      "name": "addCompanyFee",
      "outputs": [],
      "stateMutability": "nonpayable",
      "type": "function"
    },
    {
      "inputs": [
        {
          "internalType": "address",
          "name": "",
          "type": "address"
        }
      ],
      "name": "agentFee",
      "outputs": [
        {
          "internalType": "uint256",
          "name": "",
          "type": "uint256"
        }
      ],
      "stateMutability": "view",
      "type": "function"
    },
    {
      "inputs": [
        {
          "internalType": "address",
          "name": "",
          "type": "address"
        }
      ],
      "name": "agentToCompany",
      "outputs": [
        {
          "internalType": "address",
          "name": "",
          "type": "address"
        }
      ],
      "stateMutability": "view",
      "type": "function"
    },
    {
      "inputs": [
        {
          "internalType": "address",
          "name": "",
          "type": "address"
        }
      ],
      "name": "companyFee",
      "outputs": [
        {
          "internalType": "uint256",
          "name": "",
          "type": "uint256"
        }
      ],
      "stateMutability": "view",
      "type": "function"
    },
    {
      "inputs": [
        {
          "internalType": "address",
          "name": "",
          "type": "address"
        }
      ],
      "name": "companyToAgent",
      "outputs": [
        {
          "internalType": "address",
          "name": "",
          "type": "address"
        }
      ],
      "stateMutability": "view",
      "type": "function"
    },
    {
      "inputs": [],
      "name": "owner",
      "outputs": [
        {
          "internalType": "address",
          "name": "",
          "type": "address"
        }
      ],
      "stateMutability": "view",
      "type": "function"
    },
    {
      "inputs": [
        {
          "internalType": "address",
          "name": "agent",
          "type": "address"
        },
        {
          "internalType": "uint256",
          "name": "amount",
          "type": "uint256"
        }
      ],
      "name": "pay",
      "outputs": [
        {
          "internalType": "bool",
          "name": "",
          "type": "bool"
        }
      ],
      "stateMutability": "nonpayable",
      "type": "function"
    },
    {
      "inputs": [],
      "name": "renounceOwnership",
      "outputs": [],
      "stateMutability": "nonpayable",
      "type": "function"
    },
    {
      "inputs": [],
      "name": "totalSellaCoinSupply",
      "outputs": [
        {
          "internalType": "uint256",
          "name": "",
          "type": "uint256"
        }
      ],
      "stateMutability": "view",
      "type": "function"
    },
    {
      "inputs": [
        {
          "internalType": "address",
          "name": "newOwner",
          "type": "address"
        }
      ],
      "name": "transferOwnership",
      "outputs": [],
      "stateMutability": "nonpayable",
      "type": "function"
    }
  ],
  "transactionHash": "0x6d07d76398b1c52438e8c9e32dd68f5ccbc1ae142ab6018764dd5f38b570e2ec",
  "args": [
    "10"
  ],
  "numDeployments": 4,
  "solcInputHash": "a924028cc6942615b9369ff895542018",
  "bytecode": "0x6080604052731d062a69c7d55b5bea30f8574d885b484e34191e600160006101000a81548173ffffffffffffffffffffffffffffffffffffffff021916908373ffffffffffffffffffffffffffffffffffffffff1602179055503480156200006657600080fd5b50604051620014303803806200143083398181016040528101906200008c919062000207565b620000ac620000a0620000fb60201b60201c565b6200010360201b60201c565b33600260006101000a81548173ffffffffffffffffffffffffffffffffffffffff021916908373ffffffffffffffffffffffffffffffffffffffff160217905550806003819055505062000239565b600033905090565b60008060009054906101000a900473ffffffffffffffffffffffffffffffffffffffff169050816000806101000a81548173ffffffffffffffffffffffffffffffffffffffff021916908373ffffffffffffffffffffffffffffffffffffffff1602179055508173ffffffffffffffffffffffffffffffffffffffff168173ffffffffffffffffffffffffffffffffffffffff167f8be0079c531659141344cd1fd0a4f28419497f9722a3daafe3b4186f6b6457e060405160405180910390a35050565b600080fd5b6000819050919050565b620001e181620001cc565b8114620001ed57600080fd5b50565b6000815190506200020181620001d6565b92915050565b60006020828403121562000220576200021f620001c7565b5b60006200023084828501620001f0565b91505092915050565b6111e780620002496000396000f3fe608060405234801561001057600080fd5b50600436106100b45760003560e01c80638da5cb5b116100715780638da5cb5b1461017b57806399c4402414610199578063c15ba11b146101b5578063c3306f91146101e5578063c407687614610215578063f2fde38b14610245576100b4565b80631d20cb80146100b957806346589ef6146100e957806355b47a6e14610119578063715018a61461013557806384c1cd341461013f5780638c252e9e1461015d575b600080fd5b6100d360048036038101906100ce9190610c7f565b610261565b6040516100e09190610cbb565b60405180910390f35b61010360048036038101906100fe9190610c7f565b610294565b6040516101109190610cef565b60405180910390f35b610133600480360381019061012e9190610d36565b6102ac565b005b61013d61045f565b005b610147610473565b6040516101549190610cef565b60405180910390f35b610165610510565b6040516101729190610cbb565b60405180910390f35b610183610528565b6040516101909190610cbb565b60405180910390f35b6101b360048036038101906101ae9190610d76565b610551565b005b6101cf60048036038101906101ca9190610c7f565b610598565b6040516101dc9190610cef565b60405180910390f35b6101ff60048036038101906101fa9190610c7f565b6105b0565b60405161020c9190610cbb565b60405180910390f35b61022f600480360381019061022a9190610d36565b6105e3565b60405161023c9190610dbe565b60405180910390f35b61025f600480360381019061025a9190610c7f565b6109f7565b005b60066020528060005260406000206000915054906101000a900473ffffffffffffffffffffffffffffffffffffffff1681565b60056020528060005260406000206000915090505481565b600073ffffffffffffffffffffffffffffffffffffffff168273ffffffffffffffffffffffffffffffffffffffff160361031b576040517f08c379a000000000000000000000000000000000000000000000000000000000815260040161031290610e5c565b60405180910390fd5b80600560008473ffffffffffffffffffffffffffffffffffffffff1673ffffffffffffffffffffffffffffffffffffffff1681526020019081526020016000208190555081600660003373ffffffffffffffffffffffffffffffffffffffff1673ffffffffffffffffffffffffffffffffffffffff16815260200190815260200160002060006101000a81548173ffffffffffffffffffffffffffffffffffffffff021916908373ffffffffffffffffffffffffffffffffffffffff16021790555033600760008473ffffffffffffffffffffffffffffffffffffffff1673ffffffffffffffffffffffffffffffffffffffff16815260200190815260200160002060006101000a81548173ffffffffffffffffffffffffffffffffffffffff021916908373ffffffffffffffffffffffffffffffffffffffff1602179055505050565b610467610a7a565b6104716000610af8565b565b600080600160009054906101000a900473ffffffffffffffffffffffffffffffffffffffff1673ffffffffffffffffffffffffffffffffffffffff166318160ddd6040518163ffffffff1660e01b8152600401602060405180830381865afa1580156104e3573d6000803e3d6000fd5b505050506040513d601f19601f820116820180604052508101906105079190610e91565b90508091505090565b731d062a69c7d55b5bea30f8574d885b484e34191e81565b60008060009054906101000a900473ffffffffffffffffffffffffffffffffffffffff16905090565b80600460003373ffffffffffffffffffffffffffffffffffffffff1673ffffffffffffffffffffffffffffffffffffffff1681526020019081526020016000208190555050565b60046020528060005260406000206000915090505481565b60076020528060005260406000206000915054906101000a900473ffffffffffffffffffffffffffffffffffffffff1681565b600080600560008573ffffffffffffffffffffffffffffffffffffffff1673ffffffffffffffffffffffffffffffffffffffff1681526020019081526020016000205490506000600760008673ffffffffffffffffffffffffffffffffffffffff1673ffffffffffffffffffffffffffffffffffffffff16815260200190815260200160002060009054906101000a900473ffffffffffffffffffffffffffffffffffffffff1690506000600460008373ffffffffffffffffffffffffffffffffffffffff1673ffffffffffffffffffffffffffffffffffffffff16815260200190815260200160002054905060006106e66106df8786610bbc565b6064610bd2565b9050600160009054906101000a900473ffffffffffffffffffffffffffffffffffffffff1673ffffffffffffffffffffffffffffffffffffffff1663a9059cbb88836040518363ffffffff1660e01b8152600401610745929190610ebe565b6020604051808303816000875af1158015610764573d6000803e3d6000fd5b505050506040513d601f19601f820116820180604052508101906107889190610f13565b50600061079f6107988885610bbc565b6064610bd2565b9050600160009054906101000a900473ffffffffffffffffffffffffffffffffffffffff1673ffffffffffffffffffffffffffffffffffffffff1663a9059cbb85836040518363ffffffff1660e01b81526004016107fe929190610ebe565b6020604051808303816000875af115801561081d573d6000803e3d6000fd5b505050506040513d601f19601f820116820180604052508101906108419190610f13565b50600061085a61085389600354610bbc565b6064610bd2565b9050600160009054906101000a900473ffffffffffffffffffffffffffffffffffffffff1673ffffffffffffffffffffffffffffffffffffffff1663a9059cbb600260009054906101000a900473ffffffffffffffffffffffffffffffffffffffff16836040518363ffffffff1660e01b81526004016108db929190610ebe565b6020604051808303816000875af11580156108fa573d6000803e3d6000fd5b505050506040513d601f19601f8201168201806040525081019061091e9190610f13565b50600061092b8483610be8565b90506109378183610be8565b90506109438982610bfe565b9850600160009054906101000a900473ffffffffffffffffffffffffffffffffffffffff1673ffffffffffffffffffffffffffffffffffffffff1663a9059cbb878b6040518363ffffffff1660e01b81526004016109a2929190610ebe565b6020604051808303816000875af11580156109c1573d6000803e3d6000fd5b505050506040513d601f19601f820116820180604052508101906109e59190610f13565b50600197505050505050505092915050565b6109ff610a7a565b600073ffffffffffffffffffffffffffffffffffffffff168173ffffffffffffffffffffffffffffffffffffffff1603610a6e576040517f08c379a0000000000000000000000000000000000000000000000000000000008152600401610a6590610fb2565b60405180910390fd5b610a7781610af8565b50565b610a82610c14565b73ffffffffffffffffffffffffffffffffffffffff16610aa0610528565b73ffffffffffffffffffffffffffffffffffffffff1614610af6576040517f08c379a0000000000000000000000000000000000000000000000000000000008152600401610aed9061101e565b60405180910390fd5b565b60008060009054906101000a900473ffffffffffffffffffffffffffffffffffffffff169050816000806101000a81548173ffffffffffffffffffffffffffffffffffffffff021916908373ffffffffffffffffffffffffffffffffffffffff1602179055508173ffffffffffffffffffffffffffffffffffffffff168173ffffffffffffffffffffffffffffffffffffffff167f8be0079c531659141344cd1fd0a4f28419497f9722a3daafe3b4186f6b6457e060405160405180910390a35050565b60008183610bca919061106d565b905092915050565b60008183610be091906110f6565b905092915050565b60008183610bf69190611127565b905092915050565b60008183610c0c919061117d565b905092915050565b600033905090565b600080fd5b600073ffffffffffffffffffffffffffffffffffffffff82169050919050565b6000610c4c82610c21565b9050919050565b610c5c81610c41565b8114610c6757600080fd5b50565b600081359050610c7981610c53565b92915050565b600060208284031215610c9557610c94610c1c565b5b6000610ca384828501610c6a565b91505092915050565b610cb581610c41565b82525050565b6000602082019050610cd06000830184610cac565b92915050565b6000819050919050565b610ce981610cd6565b82525050565b6000602082019050610d046000830184610ce0565b92915050565b610d1381610cd6565b8114610d1e57600080fd5b50565b600081359050610d3081610d0a565b92915050565b60008060408385031215610d4d57610d4c610c1c565b5b6000610d5b85828601610c6a565b9250506020610d6c85828601610d21565b9150509250929050565b600060208284031215610d8c57610d8b610c1c565b5b6000610d9a84828501610d21565b91505092915050565b60008115159050919050565b610db881610da3565b82525050565b6000602082019050610dd36000830184610daf565b92915050565b600082825260208201905092915050565b7f4167656e7420616464726573732063616e6e6f7420626520746865207a65726f60008201527f2061646472657373000000000000000000000000000000000000000000000000602082015250565b6000610e46602883610dd9565b9150610e5182610dea565b604082019050919050565b60006020820190508181036000830152610e7581610e39565b9050919050565b600081519050610e8b81610d0a565b92915050565b600060208284031215610ea757610ea6610c1c565b5b6000610eb584828501610e7c565b91505092915050565b6000604082019050610ed36000830185610cac565b610ee06020830184610ce0565b9392505050565b610ef081610da3565b8114610efb57600080fd5b50565b600081519050610f0d81610ee7565b92915050565b600060208284031215610f2957610f28610c1c565b5b6000610f3784828501610efe565b91505092915050565b7f4f776e61626c653a206e6577206f776e657220697320746865207a65726f206160008201527f6464726573730000000000000000000000000000000000000000000000000000602082015250565b6000610f9c602683610dd9565b9150610fa782610f40565b604082019050919050565b60006020820190508181036000830152610fcb81610f8f565b9050919050565b7f4f776e61626c653a2063616c6c6572206973206e6f7420746865206f776e6572600082015250565b6000611008602083610dd9565b915061101382610fd2565b602082019050919050565b6000602082019050818103600083015261103781610ffb565b9050919050565b7f4e487b7100000000000000000000000000000000000000000000000000000000600052601160045260246000fd5b600061107882610cd6565b915061108383610cd6565b9250817fffffffffffffffffffffffffffffffffffffffffffffffffffffffffffffffff04831182151516156110bc576110bb61103e565b5b828202905092915050565b7f4e487b7100000000000000000000000000000000000000000000000000000000600052601260045260246000fd5b600061110182610cd6565b915061110c83610cd6565b92508261111c5761111b6110c7565b5b828204905092915050565b600061113282610cd6565b915061113d83610cd6565b9250827fffffffffffffffffffffffffffffffffffffffffffffffffffffffffffffffff038211156111725761117161103e565b5b828201905092915050565b600061118882610cd6565b915061119383610cd6565b9250828210156111a6576111a561103e565b5b82820390509291505056fea264697066735822122091ac34cbf086f86c2600014d18ac234f6e0f88f494003008aaa1600ff5b00a7764736f6c634300080f0033",
  "devdoc": {
    "kind": "dev",
    "methods": {
      "owner()": {
        "details": "Returns the address of the current owner."
      },
      "renounceOwnership()": {
        "details": "Leaves the contract without owner. It will not be possible to call `onlyOwner` functions anymore. Can only be called by the current owner. NOTE: Renouncing ownership will leave the contract without an owner, thereby removing any functionality that is only available to the owner."
      },
      "transferOwnership(address)": {
        "details": "Transfers ownership of the contract to a new account (`newOwner`). Can only be called by the current owner."
      }
    },
    "version": 1
  },
  "userdoc": {
    "kind": "user",
    "methods": {},
    "version": 1
  },
  "storageLayout": {
    "storage": [
      {
        "astId": 7,
        "contract": "contracts/CompanyFee.sol:CompanyFee",
        "label": "_owner",
        "offset": 0,
        "slot": "0",
        "type": "t_address"
      },
      {
        "astId": 1284,
        "contract": "contracts/CompanyFee.sol:CompanyFee",
        "label": "SellaTokenContract",
        "offset": 0,
        "slot": "1",
        "type": "t_contract(SellaTokenInterface)1270"
      },
      {
        "astId": 1286,
        "contract": "contracts/CompanyFee.sol:CompanyFee",
        "label": "_owner",
        "offset": 0,
        "slot": "2",
        "type": "t_address"
      },
      {
        "astId": 1288,
        "contract": "contracts/CompanyFee.sol:CompanyFee",
        "label": "_ownerFee",
        "offset": 0,
        "slot": "3",
        "type": "t_uint256"
      },
      {
        "astId": 1292,
        "contract": "contracts/CompanyFee.sol:CompanyFee",
        "label": "companyFee",
        "offset": 0,
        "slot": "4",
        "type": "t_mapping(t_address,t_uint256)"
      },
      {
        "astId": 1296,
        "contract": "contracts/CompanyFee.sol:CompanyFee",
        "label": "agentFee",
        "offset": 0,
        "slot": "5",
        "type": "t_mapping(t_address,t_uint256)"
      },
      {
        "astId": 1300,
        "contract": "contracts/CompanyFee.sol:CompanyFee",
        "label": "companyToAgent",
        "offset": 0,
        "slot": "6",
        "type": "t_mapping(t_address,t_address)"
      },
      {
        "astId": 1304,
        "contract": "contracts/CompanyFee.sol:CompanyFee",
        "label": "agentToCompany",
        "offset": 0,
        "slot": "7",
        "type": "t_mapping(t_address,t_address)"
      }
    ],
    "types": {
      "t_address": {
        "encoding": "inplace",
        "label": "address",
        "numberOfBytes": "20"
      },
      "t_contract(SellaTokenInterface)1270": {
        "encoding": "inplace",
        "label": "contract SellaTokenInterface",
        "numberOfBytes": "20"
      },
      "t_mapping(t_address,t_address)": {
        "encoding": "mapping",
        "key": "t_address",
        "label": "mapping(address => address)",
        "numberOfBytes": "32",
        "value": "t_address"
      },
      "t_mapping(t_address,t_uint256)": {
        "encoding": "mapping",
        "key": "t_address",
        "label": "mapping(address => uint256)",
        "numberOfBytes": "32",
        "value": "t_uint256"
      },
      "t_uint256": {
        "encoding": "inplace",
        "label": "uint256",
        "numberOfBytes": "32"
      }
    }
  }
}