{
  "address": "0xBfA99C3530734426De6bcafa05Fa38C1647763F1",
  "abi": [
    {
      "inputs": [
        {
          "internalType": "uint256",
          "name": "ownerFee_",
          "type": "uint256"
        }
      ],
      "stateMutability": "nonpayable",
      "type": "constructor"
    },
    {
      "anonymous": false,
      "inputs": [
        {
          "indexed": true,
          "internalType": "address",
          "name": "previousOwner",
          "type": "address"
        },
        {
          "indexed": true,
          "internalType": "address",
          "name": "newOwner",
          "type": "address"
        }
      ],
      "name": "OwnershipTransferred",
      "type": "event"
    },
    {
      "inputs": [],
      "name": "SELLA_CONTRACT",
      "outputs": [
        {
          "internalType": "address",
          "name": "",
          "type": "address"
        }
      ],
      "stateMutability": "view",
      "type": "function"
    },
    {
      "inputs": [
        {
          "internalType": "address",
          "name": "agent",
          "type": "address"
        },
        {
          "internalType": "uint256",
          "name": "fee",
          "type": "uint256"
        }
      ],
      "name": "addAgentFeeToCompany",
      "outputs": [],
      "stateMutability": "nonpayable",
      "type": "function"
    },
    {
      "inputs": [
        {
          "internalType": "uint256",
          "name": "fee",
          "type": "uint256"
        }
      ],
      "name": "addCompanyFee",
      "outputs": [],
      "stateMutability": "nonpayable",
      "type": "function"
    },
    {
      "inputs": [
        {
          "internalType": "address",
          "name": "",
          "type": "address"
        }
      ],
      "name": "agentFee",
      "outputs": [
        {
          "internalType": "uint256",
          "name": "",
          "type": "uint256"
        }
      ],
      "stateMutability": "view",
      "type": "function"
    },
    {
      "inputs": [
        {
          "internalType": "address",
          "name": "",
          "type": "address"
        }
      ],
      "name": "agentToCompany",
      "outputs": [
        {
          "internalType": "address",
          "name": "",
          "type": "address"
        }
      ],
      "stateMutability": "view",
      "type": "function"
    },
    {
      "inputs": [
        {
          "internalType": "address",
          "name": "",
          "type": "address"
        }
      ],
      "name": "companyFee",
      "outputs": [
        {
          "internalType": "uint256",
          "name": "",
          "type": "uint256"
        }
      ],
      "stateMutability": "view",
      "type": "function"
    },
    {
      "inputs": [
        {
          "internalType": "address",
          "name": "",
          "type": "address"
        }
      ],
      "name": "companyToAgent",
      "outputs": [
        {
          "internalType": "address",
          "name": "",
          "type": "address"
        }
      ],
      "stateMutability": "view",
      "type": "function"
    },
    {
      "inputs": [],
      "name": "owner",
      "outputs": [
        {
          "internalType": "address",
          "name": "",
          "type": "address"
        }
      ],
      "stateMutability": "view",
      "type": "function"
    },
    {
      "inputs": [
        {
          "internalType": "address",
          "name": "agent",
          "type": "address"
        },
        {
          "internalType": "uint256",
          "name": "amount",
          "type": "uint256"
        }
      ],
      "name": "pay",
      "outputs": [
        {
          "internalType": "bool",
          "name": "",
          "type": "bool"
        }
      ],
      "stateMutability": "nonpayable",
      "type": "function"
    },
    {
      "inputs": [
        {
          "internalType": "address",
          "name": "agent",
          "type": "address"
        },
        {
          "internalType": "uint256",
          "name": "amount",
          "type": "uint256"
        }
      ],
      "name": "payAgentFee",
      "outputs": [
        {
          "internalType": "uint256",
          "name": "",
          "type": "uint256"
        }
      ],
      "stateMutability": "view",
      "type": "function"
    },
    {
      "inputs": [
        {
          "internalType": "address",
          "name": "company_",
          "type": "address"
        },
        {
          "internalType": "uint256",
          "name": "amount",
          "type": "uint256"
        }
      ],
      "name": "payCompanyFee",
      "outputs": [
        {
          "internalType": "uint256",
          "name": "",
          "type": "uint256"
        }
      ],
      "stateMutability": "view",
      "type": "function"
    },
    {
      "inputs": [
        {
          "internalType": "uint256",
          "name": "amount",
          "type": "uint256"
        }
      ],
      "name": "payOwnerFee",
      "outputs": [
        {
          "internalType": "uint256",
          "name": "",
          "type": "uint256"
        }
      ],
      "stateMutability": "view",
      "type": "function"
    },
    {
      "inputs": [],
      "name": "renounceOwnership",
      "outputs": [],
      "stateMutability": "nonpayable",
      "type": "function"
    },
    {
      "inputs": [
        {
          "internalType": "address",
          "name": "to",
          "type": "address"
        },
        {
          "internalType": "uint256",
          "name": "amount",
          "type": "uint256"
        }
      ],
      "name": "sendSomeToken",
      "outputs": [
        {
          "internalType": "bool",
          "name": "",
          "type": "bool"
        }
      ],
      "stateMutability": "nonpayable",
      "type": "function"
    },
    {
      "inputs": [],
      "name": "totalSellaCoinSupply",
      "outputs": [
        {
          "internalType": "uint256",
          "name": "",
          "type": "uint256"
        }
      ],
      "stateMutability": "view",
      "type": "function"
    },
    {
      "inputs": [
        {
          "internalType": "address",
          "name": "newOwner",
          "type": "address"
        }
      ],
      "name": "transferOwnership",
      "outputs": [],
      "stateMutability": "nonpayable",
      "type": "function"
    }
  ],
  "transactionHash": "0xa0607c9b43f5ce4cd188fc4f3d7aa8a01cfb5a1cf61be8b766abf4b6ff15a0ef",
  "args": [
    "10"
  ],
  "numDeployments": 10,
  "solcInputHash": "e066592545b33327179f238e2bbb38ef",
  "bytecode": "0x6080604052731d062a69c7d55b5bea30f8574d885b484e34191e600160006101000a81548173ffffffffffffffffffffffffffffffffffffffff021916908373ffffffffffffffffffffffffffffffffffffffff1602179055503480156200006657600080fd5b50604051620016f5380380620016f583398181016040528101906200008c919062000207565b620000ac620000a0620000fb60201b60201c565b6200010360201b60201c565b33600260006101000a81548173ffffffffffffffffffffffffffffffffffffffff021916908373ffffffffffffffffffffffffffffffffffffffff160217905550806003819055505062000239565b600033905090565b60008060009054906101000a900473ffffffffffffffffffffffffffffffffffffffff169050816000806101000a81548173ffffffffffffffffffffffffffffffffffffffff021916908373ffffffffffffffffffffffffffffffffffffffff1602179055508173ffffffffffffffffffffffffffffffffffffffff168173ffffffffffffffffffffffffffffffffffffffff167f8be0079c531659141344cd1fd0a4f28419497f9722a3daafe3b4186f6b6457e060405160405180910390a35050565b600080fd5b6000819050919050565b620001e181620001cc565b8114620001ed57600080fd5b50565b6000815190506200020181620001d6565b92915050565b60006020828403121562000220576200021f620001c7565b5b60006200023084828501620001f0565b91505092915050565b6114ac80620002496000396000f3fe608060405234801561001057600080fd5b50600436106101005760003560e01c80638da5cb5b11610097578063c3306f9111610066578063c3306f91146102c1578063c4076876146102f1578063dc0b1c3514610321578063f2fde38b1461035157610100565b80638da5cb5b1461022757806399c4402414610245578063bcff9cfa14610261578063c15ba11b1461029157610100565b8063582ef9e1116100d3578063582ef9e1146101b1578063715018a6146101e157806384c1cd34146101eb5780638c252e9e1461020957610100565b8063198db81d146101055780631d20cb801461013557806346589ef61461016557806355b47a6e14610195575b600080fd5b61011f600480360381019061011a9190610f6c565b61036d565b60405161012c9190610fbb565b60405180910390f35b61014f600480360381019061014a9190610fd6565b6103d5565b60405161015c9190611012565b60405180910390f35b61017f600480360381019061017a9190610fd6565b610408565b60405161018c9190610fbb565b60405180910390f35b6101af60048036038101906101aa9190610f6c565b610420565b005b6101cb60048036038101906101c69190610f6c565b6105d3565b6040516101d89190611048565b60405180910390f35b6101e9610682565b005b6101f3610696565b6040516102009190610fbb565b60405180910390f35b610211610733565b60405161021e9190611012565b60405180910390f35b61022f61074b565b60405161023c9190611012565b60405180910390f35b61025f600480360381019061025a9190611063565b610774565b005b61027b60048036038101906102769190610f6c565b6107bb565b6040516102889190610fbb565b60405180910390f35b6102ab60048036038101906102a69190610fd6565b610823565b6040516102b89190610fbb565b60405180910390f35b6102db60048036038101906102d69190610fd6565b61083b565b6040516102e89190611012565b60405180910390f35b61030b60048036038101906103069190610f6c565b61086e565b6040516103189190611048565b60405180910390f35b61033b60048036038101906103369190611063565b610c8a565b6040516103489190610fbb565b60405180910390f35b61036b60048036038101906103669190610fd6565b610cae565b005b600080600560008573ffffffffffffffffffffffffffffffffffffffff1673ffffffffffffffffffffffffffffffffffffffff16815260200190815260200160002054905060006103c86103c18584610d31565b6064610d47565b9050809250505092915050565b60066020528060005260406000206000915054906101000a900473ffffffffffffffffffffffffffffffffffffffff1681565b60056020528060005260406000206000915090505481565b600073ffffffffffffffffffffffffffffffffffffffff168273ffffffffffffffffffffffffffffffffffffffff160361048f576040517f08c379a000000000000000000000000000000000000000000000000000000000815260040161048690611113565b60405180910390fd5b80600560008473ffffffffffffffffffffffffffffffffffffffff1673ffffffffffffffffffffffffffffffffffffffff1681526020019081526020016000208190555081600660003373ffffffffffffffffffffffffffffffffffffffff1673ffffffffffffffffffffffffffffffffffffffff16815260200190815260200160002060006101000a81548173ffffffffffffffffffffffffffffffffffffffff021916908373ffffffffffffffffffffffffffffffffffffffff16021790555033600760008473ffffffffffffffffffffffffffffffffffffffff1673ffffffffffffffffffffffffffffffffffffffff16815260200190815260200160002060006101000a81548173ffffffffffffffffffffffffffffffffffffffff021916908373ffffffffffffffffffffffffffffffffffffffff1602179055505050565b6000600160009054906101000a900473ffffffffffffffffffffffffffffffffffffffff1673ffffffffffffffffffffffffffffffffffffffff166323b872dd3385856040518463ffffffff1660e01b815260040161063493929190611133565b6020604051808303816000875af1158015610653573d6000803e3d6000fd5b505050506040513d601f19601f820116820180604052508101906106779190611196565b506001905092915050565b61068a610d5d565b6106946000610ddb565b565b600080600160009054906101000a900473ffffffffffffffffffffffffffffffffffffffff1673ffffffffffffffffffffffffffffffffffffffff166318160ddd6040518163ffffffff1660e01b8152600401602060405180830381865afa158015610706573d6000803e3d6000fd5b505050506040513d601f19601f8201168201806040525081019061072a91906111d8565b90508091505090565b731d062a69c7d55b5bea30f8574d885b484e34191e81565b60008060009054906101000a900473ffffffffffffffffffffffffffffffffffffffff16905090565b80600460003373ffffffffffffffffffffffffffffffffffffffff1673ffffffffffffffffffffffffffffffffffffffff1681526020019081526020016000208190555050565b600080600460008573ffffffffffffffffffffffffffffffffffffffff1673ffffffffffffffffffffffffffffffffffffffff168152602001908152602001600020549050600061081661080f8584610d31565b6064610d47565b9050809250505092915050565b60046020528060005260406000206000915090505481565b60076020528060005260406000206000915054906101000a900473ffffffffffffffffffffffffffffffffffffffff1681565b600080600560008573ffffffffffffffffffffffffffffffffffffffff1673ffffffffffffffffffffffffffffffffffffffff1681526020019081526020016000205490506000600760008673ffffffffffffffffffffffffffffffffffffffff1673ffffffffffffffffffffffffffffffffffffffff16815260200190815260200160002060009054906101000a900473ffffffffffffffffffffffffffffffffffffffff1690506000600460008373ffffffffffffffffffffffffffffffffffffffff1673ffffffffffffffffffffffffffffffffffffffff168152602001908152602001600020549050600061097161096a8786610d31565b6064610d47565b9050600160009054906101000a900473ffffffffffffffffffffffffffffffffffffffff1673ffffffffffffffffffffffffffffffffffffffff166323b872dd3389846040518463ffffffff1660e01b81526004016109d293929190611133565b6020604051808303816000875af11580156109f1573d6000803e3d6000fd5b505050506040513d601f19601f82011682018060405250810190610a159190611196565b506000610a2c610a258885610d31565b6064610d47565b9050600160009054906101000a900473ffffffffffffffffffffffffffffffffffffffff1673ffffffffffffffffffffffffffffffffffffffff166323b872dd3386846040518463ffffffff1660e01b8152600401610a8d93929190611133565b6020604051808303816000875af1158015610aac573d6000803e3d6000fd5b505050506040513d601f19601f82011682018060405250810190610ad09190611196565b506000610ae9610ae289600354610d31565b6064610d47565b9050600160009054906101000a900473ffffffffffffffffffffffffffffffffffffffff1673ffffffffffffffffffffffffffffffffffffffff166323b872dd33600260009054906101000a900473ffffffffffffffffffffffffffffffffffffffff16846040518463ffffffff1660e01b8152600401610b6c93929190611133565b6020604051808303816000875af1158015610b8b573d6000803e3d6000fd5b505050506040513d601f19601f82011682018060405250810190610baf9190611196565b506000610bbc8484610e9f565b9050610bc88183610e9f565b9050610bd48982610eb5565b9850600160009054906101000a900473ffffffffffffffffffffffffffffffffffffffff1673ffffffffffffffffffffffffffffffffffffffff166323b872dd33888c6040518463ffffffff1660e01b8152600401610c3593929190611133565b6020604051808303816000875af1158015610c54573d6000803e3d6000fd5b505050506040513d601f19601f82011682018060405250810190610c789190611196565b50600197505050505050505092915050565b600080610ca3610c9c84600354610d31565b6064610d47565b905080915050919050565b610cb6610d5d565b600073ffffffffffffffffffffffffffffffffffffffff168173ffffffffffffffffffffffffffffffffffffffff1603610d25576040517f08c379a0000000000000000000000000000000000000000000000000000000008152600401610d1c90611277565b60405180910390fd5b610d2e81610ddb565b50565b60008183610d3f91906112c6565b905092915050565b60008183610d55919061134f565b905092915050565b610d65610ecb565b73ffffffffffffffffffffffffffffffffffffffff16610d8361074b565b73ffffffffffffffffffffffffffffffffffffffff1614610dd9576040517f08c379a0000000000000000000000000000000000000000000000000000000008152600401610dd0906113cc565b60405180910390fd5b565b60008060009054906101000a900473ffffffffffffffffffffffffffffffffffffffff169050816000806101000a81548173ffffffffffffffffffffffffffffffffffffffff021916908373ffffffffffffffffffffffffffffffffffffffff1602179055508173ffffffffffffffffffffffffffffffffffffffff168173ffffffffffffffffffffffffffffffffffffffff167f8be0079c531659141344cd1fd0a4f28419497f9722a3daafe3b4186f6b6457e060405160405180910390a35050565b60008183610ead91906113ec565b905092915050565b60008183610ec39190611442565b905092915050565b600033905090565b600080fd5b600073ffffffffffffffffffffffffffffffffffffffff82169050919050565b6000610f0382610ed8565b9050919050565b610f1381610ef8565b8114610f1e57600080fd5b50565b600081359050610f3081610f0a565b92915050565b6000819050919050565b610f4981610f36565b8114610f5457600080fd5b50565b600081359050610f6681610f40565b92915050565b60008060408385031215610f8357610f82610ed3565b5b6000610f9185828601610f21565b9250506020610fa285828601610f57565b9150509250929050565b610fb581610f36565b82525050565b6000602082019050610fd06000830184610fac565b92915050565b600060208284031215610fec57610feb610ed3565b5b6000610ffa84828501610f21565b91505092915050565b61100c81610ef8565b82525050565b60006020820190506110276000830184611003565b92915050565b60008115159050919050565b6110428161102d565b82525050565b600060208201905061105d6000830184611039565b92915050565b60006020828403121561107957611078610ed3565b5b600061108784828501610f57565b91505092915050565b600082825260208201905092915050565b7f4167656e7420616464726573732063616e6e6f7420626520746865207a65726f60008201527f2061646472657373000000000000000000000000000000000000000000000000602082015250565b60006110fd602883611090565b9150611108826110a1565b604082019050919050565b6000602082019050818103600083015261112c816110f0565b9050919050565b60006060820190506111486000830186611003565b6111556020830185611003565b6111626040830184610fac565b949350505050565b6111738161102d565b811461117e57600080fd5b50565b6000815190506111908161116a565b92915050565b6000602082840312156111ac576111ab610ed3565b5b60006111ba84828501611181565b91505092915050565b6000815190506111d281610f40565b92915050565b6000602082840312156111ee576111ed610ed3565b5b60006111fc848285016111c3565b91505092915050565b7f4f776e61626c653a206e6577206f776e657220697320746865207a65726f206160008201527f6464726573730000000000000000000000000000000000000000000000000000602082015250565b6000611261602683611090565b915061126c82611205565b604082019050919050565b6000602082019050818103600083015261129081611254565b9050919050565b7f4e487b7100000000000000000000000000000000000000000000000000000000600052601160045260246000fd5b60006112d182610f36565b91506112dc83610f36565b9250817fffffffffffffffffffffffffffffffffffffffffffffffffffffffffffffffff048311821515161561131557611314611297565b5b828202905092915050565b7f4e487b7100000000000000000000000000000000000000000000000000000000600052601260045260246000fd5b600061135a82610f36565b915061136583610f36565b92508261137557611374611320565b5b828204905092915050565b7f4f776e61626c653a2063616c6c6572206973206e6f7420746865206f776e6572600082015250565b60006113b6602083611090565b91506113c182611380565b602082019050919050565b600060208201905081810360008301526113e5816113a9565b9050919050565b60006113f782610f36565b915061140283610f36565b9250827fffffffffffffffffffffffffffffffffffffffffffffffffffffffffffffffff0382111561143757611436611297565b5b828201905092915050565b600061144d82610f36565b915061145883610f36565b92508282101561146b5761146a611297565b5b82820390509291505056fea2646970667358221220b4f76ee9759ae8d3669bbc01a7d01d62ccfdf0914a22763138400030744e445164736f6c634300080f0033",
  "devdoc": {
    "kind": "dev",
    "methods": {
      "owner()": {
        "details": "Returns the address of the current owner."
      },
      "renounceOwnership()": {
        "details": "Leaves the contract without owner. It will not be possible to call `onlyOwner` functions anymore. Can only be called by the current owner. NOTE: Renouncing ownership will leave the contract without an owner, thereby removing any functionality that is only available to the owner."
      },
      "transferOwnership(address)": {
        "details": "Transfers ownership of the contract to a new account (`newOwner`). Can only be called by the current owner."
      }
    },
    "version": 1
  },
  "userdoc": {
    "kind": "user",
    "methods": {},
    "version": 1
  },
  "storageLayout": {
    "storage": [
      {
        "astId": 7,
        "contract": "contracts/CompanyFee.sol:CompanyFee",
        "label": "_owner",
        "offset": 0,
        "slot": "0",
        "type": "t_address"
      },
      {
        "astId": 488,
        "contract": "contracts/CompanyFee.sol:CompanyFee",
        "label": "SellaTokenContract",
        "offset": 0,
        "slot": "1",
        "type": "t_contract(SellaTokenInterface)474"
      },
      {
        "astId": 490,
        "contract": "contracts/CompanyFee.sol:CompanyFee",
        "label": "_owner",
        "offset": 0,
        "slot": "2",
        "type": "t_address"
      },
      {
        "astId": 492,
        "contract": "contracts/CompanyFee.sol:CompanyFee",
        "label": "_ownerFee",
        "offset": 0,
        "slot": "3",
        "type": "t_uint256"
      },
      {
        "astId": 496,
        "contract": "contracts/CompanyFee.sol:CompanyFee",
        "label": "companyFee",
        "offset": 0,
        "slot": "4",
        "type": "t_mapping(t_address,t_uint256)"
      },
      {
        "astId": 500,
        "contract": "contracts/CompanyFee.sol:CompanyFee",
        "label": "agentFee",
        "offset": 0,
        "slot": "5",
        "type": "t_mapping(t_address,t_uint256)"
      },
      {
        "astId": 504,
        "contract": "contracts/CompanyFee.sol:CompanyFee",
        "label": "companyToAgent",
        "offset": 0,
        "slot": "6",
        "type": "t_mapping(t_address,t_address)"
      },
      {
        "astId": 508,
        "contract": "contracts/CompanyFee.sol:CompanyFee",
        "label": "agentToCompany",
        "offset": 0,
        "slot": "7",
        "type": "t_mapping(t_address,t_address)"
      }
    ],
    "types": {
      "t_address": {
        "encoding": "inplace",
        "label": "address",
        "numberOfBytes": "20"
      },
      "t_contract(SellaTokenInterface)474": {
        "encoding": "inplace",
        "label": "contract SellaTokenInterface",
        "numberOfBytes": "20"
      },
      "t_mapping(t_address,t_address)": {
        "encoding": "mapping",
        "key": "t_address",
        "label": "mapping(address => address)",
        "numberOfBytes": "32",
        "value": "t_address"
      },
      "t_mapping(t_address,t_uint256)": {
        "encoding": "mapping",
        "key": "t_address",
        "label": "mapping(address => uint256)",
        "numberOfBytes": "32",
        "value": "t_uint256"
      },
      "t_uint256": {
        "encoding": "inplace",
        "label": "uint256",
        "numberOfBytes": "32"
      }
    }
  }
}